{
  "contractName": "MediConnect",
  "abi": [
    {
      "inputs": [],
      "stateMutability": "nonpayable",
      "type": "constructor"
    },
    {
      "inputs": [
        {
          "internalType": "address",
          "name": "owner",
          "type": "address"
        }
      ],
      "name": "OwnableInvalidOwner",
      "type": "error"
    },
    {
      "inputs": [
        {
          "internalType": "address",
          "name": "account",
          "type": "address"
        }
      ],
      "name": "OwnableUnauthorizedAccount",
      "type": "error"
    },
    {
      "inputs": [],
      "name": "ReentrancyGuardReentrantCall",
      "type": "error"
    },
    {
      "anonymous": false,
      "inputs": [
        {
          "indexed": true,
          "internalType": "address",
          "name": "doctorAddress",
          "type": "address"
        },
        {
          "indexed": false,
          "internalType": "string",
          "name": "name",
          "type": "string"
        },
        {
          "indexed": false,
          "internalType": "string",
          "name": "specialization",
          "type": "string"
        }
      ],
      "name": "DoctorRegistered",
      "type": "event"
    },
    {
      "anonymous": false,
      "inputs": [
        {
          "indexed": true,
          "internalType": "address",
          "name": "patientAddress",
          "type": "address"
        },
        {
          "indexed": false,
          "internalType": "string",
          "name": "medicalHistory",
          "type": "string"
        }
      ],
      "name": "MedicalRecordUpdated",
      "type": "event"
    },
    {
      "anonymous": false,
      "inputs": [
        {
          "indexed": true,
          "internalType": "address",
          "name": "previousOwner",
          "type": "address"
        },
        {
          "indexed": true,
          "internalType": "address",
          "name": "newOwner",
          "type": "address"
        }
      ],
      "name": "OwnershipTransferred",
      "type": "event"
    },
    {
      "anonymous": false,
      "inputs": [
        {
          "indexed": true,
          "internalType": "address",
          "name": "patientAddress",
          "type": "address"
        },
        {
          "indexed": false,
          "internalType": "string",
          "name": "name",
          "type": "string"
        },
        {
          "indexed": false,
          "internalType": "string",
          "name": "email",
          "type": "string"
        }
      ],
      "name": "PatientRegistered",
      "type": "event"
    },
    {
      "inputs": [
        {
          "internalType": "address",
          "name": "",
          "type": "address"
        }
      ],
      "name": "doctors",
      "outputs": [
        {
          "internalType": "string",
          "name": "name",
          "type": "string"
        },
        {
          "internalType": "string",
          "name": "email",
          "type": "string"
        },
        {
          "internalType": "string",
          "name": "specialization",
          "type": "string"
        },
        {
          "internalType": "string",
          "name": "licenseNumber",
          "type": "string"
        },
        {
          "internalType": "bool",
          "name": "isRegistered",
          "type": "bool"
        },
        {
          "internalType": "address",
          "name": "walletAddress",
          "type": "address"
        }
      ],
      "stateMutability": "view",
      "type": "function",
      "constant": true
    },
    {
      "inputs": [
        {
          "internalType": "address",
          "name": "",
          "type": "address"
        }
      ],
      "name": "isDoctor",
      "outputs": [
        {
          "internalType": "bool",
          "name": "",
          "type": "bool"
        }
      ],
      "stateMutability": "view",
      "type": "function",
      "constant": true
    },
    {
      "inputs": [
        {
          "internalType": "address",
          "name": "",
          "type": "address"
        }
      ],
      "name": "isPatient",
      "outputs": [
        {
          "internalType": "bool",
          "name": "",
          "type": "bool"
        }
      ],
      "stateMutability": "view",
      "type": "function",
      "constant": true
    },
    {
      "inputs": [],
      "name": "owner",
      "outputs": [
        {
          "internalType": "address",
          "name": "",
          "type": "address"
        }
      ],
      "stateMutability": "view",
      "type": "function",
      "constant": true
    },
    {
      "inputs": [
        {
          "internalType": "address",
          "name": "",
          "type": "address"
        }
      ],
      "name": "patients",
      "outputs": [
        {
          "internalType": "string",
          "name": "name",
          "type": "string"
        },
        {
          "internalType": "string",
          "name": "email",
          "type": "string"
        },
        {
          "internalType": "string",
          "name": "phoneNumber",
          "type": "string"
        },
        {
          "internalType": "string",
          "name": "dateOfBirth",
          "type": "string"
        },
        {
          "internalType": "string",
          "name": "medicalHistory",
          "type": "string"
        },
        {
          "internalType": "bool",
          "name": "isRegistered",
          "type": "bool"
        },
        {
          "internalType": "address",
          "name": "walletAddress",
          "type": "address"
        }
      ],
      "stateMutability": "view",
      "type": "function",
      "constant": true
    },
    {
      "inputs": [],
      "name": "renounceOwnership",
      "outputs": [],
      "stateMutability": "nonpayable",
      "type": "function"
    },
    {
      "inputs": [
        {
          "internalType": "address",
          "name": "newOwner",
          "type": "address"
        }
      ],
      "name": "transferOwnership",
      "outputs": [],
      "stateMutability": "nonpayable",
      "type": "function"
    },
    {
      "inputs": [
        {
          "internalType": "string",
          "name": "_name",
          "type": "string"
        },
        {
          "internalType": "string",
          "name": "_email",
          "type": "string"
        },
        {
          "internalType": "string",
          "name": "_phoneNumber",
          "type": "string"
        },
        {
          "internalType": "string",
          "name": "_dateOfBirth",
          "type": "string"
        },
        {
          "internalType": "string",
          "name": "_medicalHistory",
          "type": "string"
        }
      ],
      "name": "registerPatient",
      "outputs": [],
      "stateMutability": "nonpayable",
      "type": "function"
    },
    {
      "inputs": [
        {
          "internalType": "string",
          "name": "_name",
          "type": "string"
        },
        {
          "internalType": "string",
          "name": "_email",
          "type": "string"
        },
        {
          "internalType": "string",
          "name": "_specialization",
          "type": "string"
        },
        {
          "internalType": "string",
          "name": "_licenseNumber",
          "type": "string"
        }
      ],
      "name": "registerDoctor",
      "outputs": [],
      "stateMutability": "nonpayable",
      "type": "function"
    },
    {
      "inputs": [
        {
          "internalType": "address",
          "name": "_patientAddress",
          "type": "address"
        },
        {
          "internalType": "string",
          "name": "_newMedicalHistory",
          "type": "string"
        }
      ],
      "name": "updateMedicalHistory",
      "outputs": [],
      "stateMutability": "nonpayable",
      "type": "function"
    },
    {
      "inputs": [
        {
          "internalType": "address",
          "name": "_patientAddress",
          "type": "address"
        }
      ],
      "name": "getPatientInfo",
      "outputs": [
        {
          "internalType": "string",
          "name": "name",
          "type": "string"
        },
        {
          "internalType": "string",
          "name": "email",
          "type": "string"
        },
        {
          "internalType": "string",
          "name": "phoneNumber",
          "type": "string"
        },
        {
          "internalType": "string",
          "name": "dateOfBirth",
          "type": "string"
        },
        {
          "internalType": "string",
          "name": "medicalHistory",
          "type": "string"
        }
      ],
      "stateMutability": "view",
      "type": "function",
      "constant": true
    },
    {
      "inputs": [
        {
          "internalType": "address",
          "name": "_doctorAddress",
          "type": "address"
        }
      ],
      "name": "getDoctorInfo",
      "outputs": [
        {
          "internalType": "string",
          "name": "name",
          "type": "string"
        },
        {
          "internalType": "string",
          "name": "email",
          "type": "string"
        },
        {
          "internalType": "string",
          "name": "specialization",
          "type": "string"
        },
        {
          "internalType": "string",
          "name": "licenseNumber",
          "type": "string"
        }
      ],
      "stateMutability": "view",
      "type": "function",
      "constant": true
    }
  ],
  "bytecode": "0x608060405234801561001057600080fd5b50338061003757604051631e4fbdf760e01b81526000600482015260240160405180910390fd5b6100408161004a565b506001805561009a565b600080546001600160a01b038381166001600160a01b0319831681178455604051919092169283917f8be0079c531659141344cd1fd0a4f28419497f9722a3daafe3b4186f6b6457e09190a35050565b611b1c806100a96000396000f3fe608060405234801561001057600080fd5b50600436106100b45760003560e01c80638da5cb5b116100715780638da5cb5b1461015f5780638f9c79ed1461017a578063996440c6146101ad578063a5e5f940146101d0578063a9583c22146101e3578063f2fde38b1461020857600080fd5b80630869cfbc146100b957806333a8587f146100e85780634b426178146100fd5780636f12fc3514610121578063711e941c14610144578063715018a614610157575b600080fd5b6100cc6100c73660046114c8565b61021b565b6040516100df9796959493929190611530565b60405180910390f35b6100fb6100f6366004611659565b61050b565b005b61011061010b3660046114c8565b610716565b6040516100df959493929190611706565b61013461012f3660046114c8565b610acf565b6040516100df9493929190611773565b6100fb6101523660046117cb565b610dec565b6100fb61100e565b6000546040516001600160a01b0390911681526020016100df565b61019d6101883660046114c8565b60046020526000908152604090205460ff1681565b60405190151581526020016100df565b61019d6101bb3660046114c8565b60056020526000908152604090205460ff1681565b6100fb6101de36600461189d565b611022565b6101f66101f13660046114c8565b611165565b6040516100df969594939291906118eb565b6100fb6102163660046114c8565b6113c7565b6002602052600090815260409020805481906102369061195c565b80601f01602080910402602001604051908101604052809291908181526020018280546102629061195c565b80156102af5780601f10610284576101008083540402835291602001916102af565b820191906000526020600020905b81548152906001019060200180831161029257829003601f168201915b5050505050908060010180546102c49061195c565b80601f01602080910402602001604051908101604052809291908181526020018280546102f09061195c565b801561033d5780601f106103125761010080835404028352916020019161033d565b820191906000526020600020905b81548152906001019060200180831161032057829003601f168201915b5050505050908060020180546103529061195c565b80601f016020809104026020016040519081016040528092919081815260200182805461037e9061195c565b80156103cb5780601f106103a0576101008083540402835291602001916103cb565b820191906000526020600020905b8154815290600101906020018083116103ae57829003601f168201915b5050505050908060030180546103e09061195c565b80601f016020809104026020016040519081016040528092919081815260200182805461040c9061195c565b80156104595780601f1061042e57610100808354040283529160200191610459565b820191906000526020600020905b81548152906001019060200180831161043c57829003601f168201915b50505050509080600401805461046e9061195c565b80601f016020809104026020016040519081016040528092919081815260200182805461049a9061195c565b80156104e75780601f106104bc576101008083540402835291602001916104e7565b820191906000526020600020905b8154815290600101906020018083116104ca57829003601f168201915b5050506005909301549192505060ff8116906001600160a01b036101009091041687565b610513611405565b3360009081526005602052604090205460ff16156105785760405162461bcd60e51b815260206004820152601960248201527f446f63746f7220616c726561647920726567697374657265640000000000000060448201526064015b60405180910390fd5b3360009081526004602052604090205460ff16156105e35760405162461bcd60e51b815260206004820152602260248201527f41646472657373206973207265676973746572656420617320612070617469656044820152611b9d60f21b606482015260840161056f565b6040805160c081018252858152602080820186905281830185905260608201849052600160808301523360a0830181905260009081526003909152919091208151819061063090826119e5565b506020820151600182019061064590826119e5565b506040820151600282019061065a90826119e5565b506060820151600382019061066f90826119e5565b5060808201516004909101805460a0909301516001600160a01b031661010002610100600160a81b0319921515929092166001600160a81b0319909316929092171790553360008181526005602052604090819020805460ff19166001179055517fbc3a5b2aeb1bc52e3d56d3fd3423dd66cea5ecff8ae1f3bd0d75a0e608da7b85906106ff9087908690611aa5565b60405180910390a261071060018055565b50505050565b6001600160a01b038116600090815260046020526040902054606090819081908190819060ff166107825760405162461bcd60e51b815260206004820152601660248201527514185d1a595b9d081b9bdd081c9959da5cdd195c995960521b604482015260640161056f565b6001600160a01b038616600090815260026020526040808220815160e081019092528054829082906107b39061195c565b80601f01602080910402602001604051908101604052809291908181526020018280546107df9061195c565b801561082c5780601f106108015761010080835404028352916020019161082c565b820191906000526020600020905b81548152906001019060200180831161080f57829003601f168201915b505050505081526020016001820180546108459061195c565b80601f01602080910402602001604051908101604052809291908181526020018280546108719061195c565b80156108be5780601f10610893576101008083540402835291602001916108be565b820191906000526020600020905b8154815290600101906020018083116108a157829003601f168201915b505050505081526020016002820180546108d79061195c565b80601f01602080910402602001604051908101604052809291908181526020018280546109039061195c565b80156109505780601f1061092557610100808354040283529160200191610950565b820191906000526020600020905b81548152906001019060200180831161093357829003601f168201915b505050505081526020016003820180546109699061195c565b80601f01602080910402602001604051908101604052809291908181526020018280546109959061195c565b80156109e25780601f106109b7576101008083540402835291602001916109e2565b820191906000526020600020905b8154815290600101906020018083116109c557829003601f168201915b505050505081526020016004820180546109fb9061195c565b80601f0160208091040260200160405190810160405280929190818152602001828054610a279061195c565b8015610a745780601f10610a4957610100808354040283529160200191610a74565b820191906000526020600020905b815481529060010190602001808311610a5757829003601f168201915b50505091835250506005919091015460ff811615156020808401919091526101009091046001600160a01b0316604092830152825190830151918301516060840151608090940151919b929a50985091965090945092505050565b6001600160a01b03811660009081526005602052604090205460609081908190819060ff16610b385760405162461bcd60e51b8152602060048201526015602482015274111bd8dd1bdc881b9bdd081c9959da5cdd195c9959605a1b604482015260640161056f565b6001600160a01b038516600090815260036020526040808220815160c08101909252805482908290610b699061195c565b80601f0160208091040260200160405190810160405280929190818152602001828054610b959061195c565b8015610be25780601f10610bb757610100808354040283529160200191610be2565b820191906000526020600020905b815481529060010190602001808311610bc557829003601f168201915b50505050508152602001600182018054610bfb9061195c565b80601f0160208091040260200160405190810160405280929190818152602001828054610c279061195c565b8015610c745780601f10610c4957610100808354040283529160200191610c74565b820191906000526020600020905b815481529060010190602001808311610c5757829003601f168201915b50505050508152602001600282018054610c8d9061195c565b80601f0160208091040260200160405190810160405280929190818152602001828054610cb99061195c565b8015610d065780601f10610cdb57610100808354040283529160200191610d06565b820191906000526020600020905b815481529060010190602001808311610ce957829003601f168201915b50505050508152602001600382018054610d1f9061195c565b80601f0160208091040260200160405190810160405280929190818152602001828054610d4b9061195c565b8015610d985780601f10610d6d57610100808354040283529160200191610d98565b820191906000526020600020905b815481529060010190602001808311610d7b57829003601f168201915b50505091835250506004919091015460ff811615156020808401919091526101009091046001600160a01b031660409283015282519083015191830151606090930151909991985091965090945092505050565b610df4611405565b3360009081526004602052604090205460ff1615610e545760405162461bcd60e51b815260206004820152601a60248201527f50617469656e7420616c72656164792072656769737465726564000000000000604482015260640161056f565b3360009081526005602052604090205460ff1615610ebe5760405162461bcd60e51b815260206004820152602160248201527f416464726573732069732072656769737465726564206173206120646f63746f6044820152603960f91b606482015260840161056f565b6040805160e08101825286815260208082018790528183018690526060820185905260808201849052600160a08301523360c08301819052600090815260029091529190912081518190610f1290826119e5565b5060208201516001820190610f2790826119e5565b5060408201516002820190610f3c90826119e5565b5060608201516003820190610f5190826119e5565b5060808201516004820190610f6690826119e5565b5060a08201516005909101805460c0909301516001600160a01b031661010002610100600160a81b0319921515929092166001600160a81b0319909316929092171790553360008181526004602052604090819020805460ff19166001179055517f5aad8bc7ad9861b16c6d01a65f54118dfe585a51e408ac2e7b9499148d515c4190610ff69088908890611aa5565b60405180910390a261100760018055565b5050505050565b61101661142f565b611020600061145c565b565b3360009081526005602052604090205460ff166110995760405162461bcd60e51b815260206004820152602f60248201527f4f6e6c79207265676973746572656420646f63746f72732063616e207065726660448201526e37b936903a3434b99030b1ba34b7b760891b606482015260840161056f565b6001600160a01b03821660009081526004602052604090205460ff166110fa5760405162461bcd60e51b815260206004820152601660248201527514185d1a595b9d081b9bdd081c9959da5cdd195c995960521b604482015260640161056f565b6001600160a01b038216600090815260026020526040902060040161111f82826119e5565b50816001600160a01b03167f1e4a3aa86f1bd77fc9038887ebf88d1ce21f840aaf6b59e1c0ff164001c60bf7826040516111599190611ad3565b60405180910390a25050565b6003602052600090815260409020805481906111809061195c565b80601f01602080910402602001604051908101604052809291908181526020018280546111ac9061195c565b80156111f95780601f106111ce576101008083540402835291602001916111f9565b820191906000526020600020905b8154815290600101906020018083116111dc57829003601f168201915b50505050509080600101805461120e9061195c565b80601f016020809104026020016040519081016040528092919081815260200182805461123a9061195c565b80156112875780601f1061125c57610100808354040283529160200191611287565b820191906000526020600020905b81548152906001019060200180831161126a57829003601f168201915b50505050509080600201805461129c9061195c565b80601f01602080910402602001604051908101604052809291908181526020018280546112c89061195c565b80156113155780601f106112ea57610100808354040283529160200191611315565b820191906000526020600020905b8154815290600101906020018083116112f857829003601f168201915b50505050509080600301805461132a9061195c565b80601f01602080910402602001604051908101604052809291908181526020018280546113569061195c565b80156113a35780601f10611378576101008083540402835291602001916113a3565b820191906000526020600020905b81548152906001019060200180831161138657829003601f168201915b5050506004909301549192505060ff8116906001600160a01b036101009091041686565b6113cf61142f565b6001600160a01b0381166113f957604051631e4fbdf760e01b81526000600482015260240161056f565b6114028161145c565b50565b60026001540361142857604051633ee5aeb560e01b815260040160405180910390fd5b6002600155565b6000546001600160a01b031633146110205760405163118cdaa760e01b815233600482015260240161056f565b600080546001600160a01b038381166001600160a01b0319831681178455604051919092169283917f8be0079c531659141344cd1fd0a4f28419497f9722a3daafe3b4186f6b6457e09190a35050565b80356001600160a01b03811681146114c357600080fd5b919050565b6000602082840312156114da57600080fd5b6114e3826114ac565b9392505050565b6000815180845260005b81811015611510576020818501810151868301820152016114f4565b506000602082860101526020601f19601f83011685010191505092915050565b60e08152600061154360e083018a6114ea565b8281036020840152611555818a6114ea565b9050828103604084015261156981896114ea565b9050828103606084015261157d81886114ea565b9050828103608084015261159181876114ea565b94151560a084015250506001600160a01b039190911660c09091015295945050505050565b634e487b7160e01b600052604160045260246000fd5b600082601f8301126115dd57600080fd5b813567ffffffffffffffff808211156115f8576115f86115b6565b604051601f8301601f19908116603f01168101908282118183101715611620576116206115b6565b8160405283815286602085880101111561163957600080fd5b836020870160208301376000602085830101528094505050505092915050565b6000806000806080858703121561166f57600080fd5b843567ffffffffffffffff8082111561168757600080fd5b611693888389016115cc565b955060208701359150808211156116a957600080fd5b6116b5888389016115cc565b945060408701359150808211156116cb57600080fd5b6116d7888389016115cc565b935060608701359150808211156116ed57600080fd5b506116fa878288016115cc565b91505092959194509250565b60a08152600061171960a08301886114ea565b828103602084015261172b81886114ea565b9050828103604084015261173f81876114ea565b9050828103606084015261175381866114ea565b9050828103608084015261176781856114ea565b98975050505050505050565b60808152600061178660808301876114ea565b828103602084015261179881876114ea565b905082810360408401526117ac81866114ea565b905082810360608401526117c081856114ea565b979650505050505050565b600080600080600060a086880312156117e357600080fd5b853567ffffffffffffffff808211156117fb57600080fd5b61180789838a016115cc565b9650602088013591508082111561181d57600080fd5b61182989838a016115cc565b9550604088013591508082111561183f57600080fd5b61184b89838a016115cc565b9450606088013591508082111561186157600080fd5b61186d89838a016115cc565b9350608088013591508082111561188357600080fd5b50611890888289016115cc565b9150509295509295909350565b600080604083850312156118b057600080fd5b6118b9836114ac565b9150602083013567ffffffffffffffff8111156118d557600080fd5b6118e1858286016115cc565b9150509250929050565b60c0815260006118fe60c08301896114ea565b828103602084015261191081896114ea565b9050828103604084015261192481886114ea565b9050828103606084015261193881876114ea565b941515608084015250506001600160a01b039190911660a090910152949350505050565b600181811c9082168061197057607f821691505b60208210810361199057634e487b7160e01b600052602260045260246000fd5b50919050565b601f8211156119e057600081815260208120601f850160051c810160208610156119bd5750805b601f850160051c820191505b818110156119dc578281556001016119c9565b5050505b505050565b815167ffffffffffffffff8111156119ff576119ff6115b6565b611a1381611a0d845461195c565b84611996565b602080601f831160018114611a485760008415611a305750858301515b600019600386901b1c1916600185901b1785556119dc565b600085815260208120601f198616915b82811015611a7757888601518255948401946001909101908401611a58565b5085821015611a955787850151600019600388901b60f8161c191681555b5050505050600190811b01905550565b604081526000611ab860408301856114ea565b8281036020840152611aca81856114ea565b95945050505050565b6020815260006114e360208301846114ea56fea26469706673582212206842776ed1aafe236a3198d2efbcbcf43ed409d6386b234d28efd368c4bb2a5564736f6c63430008130033",
  "immutableReferences": {},
  "source": "// SPDX-License-Identifier: MIT\npragma solidity ^0.8.19;\n\nimport \"@openzeppelin/contracts/access/Ownable.sol\";\nimport \"@openzeppelin/contracts/utils/ReentrancyGuard.sol\";\n\ncontract MediConnect is Ownable, ReentrancyGuard {\n    constructor() Ownable(msg.sender) {}\n\n    struct Patient {\n        string name;\n        string email;\n        string phoneNumber;\n        string dateOfBirth;\n        string medicalHistory;\n        bool isRegistered;\n        address walletAddress;\n    }\n\n    struct Doctor {\n        string name;\n        string email;\n        string specialization;\n        string licenseNumber;\n        bool isRegistered;\n        address walletAddress;\n    }\n\n    mapping(address => Patient) public patients;\n    mapping(address => Doctor) public doctors;\n    mapping(address => bool) public isPatient;\n    mapping(address => bool) public isDoctor;\n\n    event PatientRegistered(address indexed patientAddress, string name, string email);\n    event DoctorRegistered(address indexed doctorAddress, string name, string specialization);\n    event MedicalRecordUpdated(address indexed patientAddress, string medicalHistory);\n\n    modifier onlyPatient() {\n        require(isPatient[msg.sender], \"Only registered patients can perform this action\");\n        _;\n    }\n\n    modifier onlyDoctor() {\n        require(isDoctor[msg.sender], \"Only registered doctors can perform this action\");\n        _;\n    }\n\n    function registerPatient(\n        string memory _name,\n        string memory _email,\n        string memory _phoneNumber,\n        string memory _dateOfBirth,\n        string memory _medicalHistory\n    ) external nonReentrant {\n        require(!isPatient[msg.sender], \"Patient already registered\");\n        require(!isDoctor[msg.sender], \"Address is registered as a doctor\");\n\n        patients[msg.sender] = Patient({\n            name: _name,\n            email: _email,\n            phoneNumber: _phoneNumber,\n            dateOfBirth: _dateOfBirth,\n            medicalHistory: _medicalHistory,\n            isRegistered: true,\n            walletAddress: msg.sender\n        });\n\n        isPatient[msg.sender] = true;\n        emit PatientRegistered(msg.sender, _name, _email);\n    }\n\n    function registerDoctor(\n        string memory _name,\n        string memory _email,\n        string memory _specialization,\n        string memory _licenseNumber\n    ) external nonReentrant {\n        require(!isDoctor[msg.sender], \"Doctor already registered\");\n        require(!isPatient[msg.sender], \"Address is registered as a patient\");\n\n        doctors[msg.sender] = Doctor({\n            name: _name,\n            email: _email,\n            specialization: _specialization,\n            licenseNumber: _licenseNumber,\n            isRegistered: true,\n            walletAddress: msg.sender\n        });\n\n        isDoctor[msg.sender] = true;\n        emit DoctorRegistered(msg.sender, _name, _specialization);\n    }\n\n    function updateMedicalHistory(\n        address _patientAddress,\n        string memory _newMedicalHistory\n    ) external onlyDoctor {\n        require(isPatient[_patientAddress], \"Patient not registered\");\n        \n        patients[_patientAddress].medicalHistory = _newMedicalHistory;\n        emit MedicalRecordUpdated(_patientAddress, _newMedicalHistory);\n    }\n\n    function getPatientInfo(address _patientAddress) external view returns (\n        string memory name,\n        string memory email,\n        string memory phoneNumber,\n        string memory dateOfBirth,\n        string memory medicalHistory\n    ) {\n        require(isPatient[_patientAddress], \"Patient not registered\");\n        Patient memory patient = patients[_patientAddress];\n        return (\n            patient.name,\n            patient.email,\n            patient.phoneNumber,\n            patient.dateOfBirth,\n            patient.medicalHistory\n        );\n    }\n\n    function getDoctorInfo(address _doctorAddress) external view returns (\n        string memory name,\n        string memory email,\n        string memory specialization,\n        string memory licenseNumber\n    ) {\n        require(isDoctor[_doctorAddress], \"Doctor not registered\");\n        Doctor memory doctor = doctors[_doctorAddress];\n        return (\n            doctor.name,\n            doctor.email,\n            doctor.specialization,\n            doctor.licenseNumber\n        );\n    }\n} ",
  "sourcePath": "/Users/ms/Desktop/blockchain-project/contracts/MediConnect.sol",
  "compiler": {
    "name": "solc",
    "version": "0.8.19+commit.7dd6d404.Emscripten.clang"
  },
  "schemaVersion": "3.4.16",
  "updatedAt": "2025-06-09T04:47:49.029Z",
  "networkType": "ethereum",
  "devdoc": {
    "errors": {
      "OwnableInvalidOwner(address)": [
        {
          "details": "The owner is not a valid owner account. (eg. `address(0)`)"
        }
      ],
      "OwnableUnauthorizedAccount(address)": [
        {
          "details": "The caller account is not authorized to perform an operation."
        }
      ],
      "ReentrancyGuardReentrantCall()": [
        {
          "details": "Unauthorized reentrant call."
        }
      ]
    },
    "kind": "dev",
    "methods": {
      "owner()": {
        "details": "Returns the address of the current owner."
      },
      "renounceOwnership()": {
        "details": "Leaves the contract without owner. It will not be possible to call `onlyOwner` functions. Can only be called by the current owner. NOTE: Renouncing ownership will leave the contract without an owner, thereby disabling any functionality that is only available to the owner."
      },
      "transferOwnership(address)": {
        "details": "Transfers ownership of the contract to a new account (`newOwner`). Can only be called by the current owner."
      }
    },
    "version": 1
  },
  "userdoc": {
    "kind": "user",
    "methods": {},
    "version": 1
  }
}