{
  "contractName": "MediConnect",
  "abi": [
    {
      "inputs": [],
      "stateMutability": "nonpayable",
      "type": "constructor"
    },
    {
      "inputs": [
        {
          "internalType": "address",
          "name": "owner",
          "type": "address"
        }
      ],
      "name": "OwnableInvalidOwner",
      "type": "error"
    },
    {
      "inputs": [
        {
          "internalType": "address",
          "name": "account",
          "type": "address"
        }
      ],
      "name": "OwnableUnauthorizedAccount",
      "type": "error"
    },
    {
      "inputs": [],
      "name": "ReentrancyGuardReentrantCall",
      "type": "error"
    },
    {
      "anonymous": false,
      "inputs": [
        {
          "indexed": true,
          "internalType": "address",
          "name": "doctorAddress",
          "type": "address"
        },
        {
          "indexed": false,
          "internalType": "string",
          "name": "name",
          "type": "string"
        },
        {
          "indexed": false,
          "internalType": "string",
          "name": "specialization",
          "type": "string"
        }
      ],
      "name": "DoctorRegistered",
      "type": "event"
    },
    {
      "anonymous": false,
      "inputs": [
        {
          "indexed": true,
          "internalType": "address",
          "name": "patientAddress",
          "type": "address"
        },
        {
          "indexed": false,
          "internalType": "string",
          "name": "medicalHistory",
          "type": "string"
        }
      ],
      "name": "MedicalRecordUpdated",
      "type": "event"
    },
    {
      "anonymous": false,
      "inputs": [
        {
          "indexed": true,
          "internalType": "address",
          "name": "previousOwner",
          "type": "address"
        },
        {
          "indexed": true,
          "internalType": "address",
          "name": "newOwner",
          "type": "address"
        }
      ],
      "name": "OwnershipTransferred",
      "type": "event"
    },
    {
      "anonymous": false,
      "inputs": [
        {
          "indexed": true,
          "internalType": "address",
          "name": "patientAddress",
          "type": "address"
        },
        {
          "indexed": false,
          "internalType": "string",
          "name": "name",
          "type": "string"
        },
        {
          "indexed": false,
          "internalType": "string",
          "name": "email",
          "type": "string"
        }
      ],
      "name": "PatientRegistered",
      "type": "event"
    },
    {
      "inputs": [
        {
          "internalType": "address",
          "name": "",
          "type": "address"
        }
      ],
      "name": "doctors",
      "outputs": [
        {
          "internalType": "string",
          "name": "name",
          "type": "string"
        },
        {
          "internalType": "string",
          "name": "email",
          "type": "string"
        },
        {
          "internalType": "string",
          "name": "specialization",
          "type": "string"
        },
        {
          "internalType": "string",
          "name": "licenseNumber",
          "type": "string"
        },
        {
          "internalType": "bool",
          "name": "isRegistered",
          "type": "bool"
        },
        {
          "internalType": "address",
          "name": "walletAddress",
          "type": "address"
        }
      ],
      "stateMutability": "view",
      "type": "function",
      "constant": true
    },
    {
      "inputs": [
        {
          "internalType": "address",
          "name": "",
          "type": "address"
        }
      ],
      "name": "isDoctor",
      "outputs": [
        {
          "internalType": "bool",
          "name": "",
          "type": "bool"
        }
      ],
      "stateMutability": "view",
      "type": "function",
      "constant": true
    },
    {
      "inputs": [
        {
          "internalType": "address",
          "name": "",
          "type": "address"
        }
      ],
      "name": "isPatient",
      "outputs": [
        {
          "internalType": "bool",
          "name": "",
          "type": "bool"
        }
      ],
      "stateMutability": "view",
      "type": "function",
      "constant": true
    },
    {
      "inputs": [],
      "name": "owner",
      "outputs": [
        {
          "internalType": "address",
          "name": "",
          "type": "address"
        }
      ],
      "stateMutability": "view",
      "type": "function",
      "constant": true
    },
    {
      "inputs": [
        {
          "internalType": "address",
          "name": "",
          "type": "address"
        }
      ],
      "name": "patients",
      "outputs": [
        {
          "internalType": "string",
          "name": "name",
          "type": "string"
        },
        {
          "internalType": "string",
          "name": "email",
          "type": "string"
        },
        {
          "internalType": "string",
          "name": "phoneNumber",
          "type": "string"
        },
        {
          "internalType": "string",
          "name": "dateOfBirth",
          "type": "string"
        },
        {
          "internalType": "string",
          "name": "location",
          "type": "string"
        },
        {
          "internalType": "string",
          "name": "medicalHistory",
          "type": "string"
        },
        {
          "internalType": "bool",
          "name": "isRegistered",
          "type": "bool"
        },
        {
          "internalType": "address",
          "name": "walletAddress",
          "type": "address"
        }
      ],
      "stateMutability": "view",
      "type": "function",
      "constant": true
    },
    {
      "inputs": [],
      "name": "renounceOwnership",
      "outputs": [],
      "stateMutability": "nonpayable",
      "type": "function"
    },
    {
      "inputs": [
        {
          "internalType": "address",
          "name": "newOwner",
          "type": "address"
        }
      ],
      "name": "transferOwnership",
      "outputs": [],
      "stateMutability": "nonpayable",
      "type": "function"
    },
    {
      "inputs": [
        {
          "internalType": "string",
          "name": "_name",
          "type": "string"
        },
        {
          "internalType": "string",
          "name": "_email",
          "type": "string"
        },
        {
          "internalType": "string",
          "name": "_phoneNumber",
          "type": "string"
        },
        {
          "internalType": "string",
          "name": "_dateOfBirth",
          "type": "string"
        },
        {
          "internalType": "string",
          "name": "_location",
          "type": "string"
        },
        {
          "internalType": "string",
          "name": "_medicalHistory",
          "type": "string"
        }
      ],
      "name": "registerPatient",
      "outputs": [],
      "stateMutability": "nonpayable",
      "type": "function"
    },
    {
      "inputs": [
        {
          "internalType": "string",
          "name": "_name",
          "type": "string"
        },
        {
          "internalType": "string",
          "name": "_email",
          "type": "string"
        },
        {
          "internalType": "string",
          "name": "_specialization",
          "type": "string"
        },
        {
          "internalType": "string",
          "name": "_licenseNumber",
          "type": "string"
        }
      ],
      "name": "registerDoctor",
      "outputs": [],
      "stateMutability": "nonpayable",
      "type": "function"
    },
    {
      "inputs": [
        {
          "internalType": "address",
          "name": "_patientAddress",
          "type": "address"
        },
        {
          "internalType": "string",
          "name": "_newMedicalHistory",
          "type": "string"
        }
      ],
      "name": "updateMedicalHistory",
      "outputs": [],
      "stateMutability": "nonpayable",
      "type": "function"
    },
    {
      "inputs": [
        {
          "internalType": "address",
          "name": "_patientAddress",
          "type": "address"
        }
      ],
      "name": "getPatientInfo",
      "outputs": [
        {
          "internalType": "string",
          "name": "name",
          "type": "string"
        },
        {
          "internalType": "string",
          "name": "email",
          "type": "string"
        },
        {
          "internalType": "string",
          "name": "phoneNumber",
          "type": "string"
        },
        {
          "internalType": "string",
          "name": "dateOfBirth",
          "type": "string"
        },
        {
          "internalType": "string",
          "name": "location",
          "type": "string"
        },
        {
          "internalType": "string",
          "name": "medicalHistory",
          "type": "string"
        }
      ],
      "stateMutability": "view",
      "type": "function",
      "constant": true
    },
    {
      "inputs": [
        {
          "internalType": "address",
          "name": "_doctorAddress",
          "type": "address"
        }
      ],
      "name": "getDoctorInfo",
      "outputs": [
        {
          "internalType": "string",
          "name": "name",
          "type": "string"
        },
        {
          "internalType": "string",
          "name": "email",
          "type": "string"
        },
        {
          "internalType": "string",
          "name": "specialization",
          "type": "string"
        },
        {
          "internalType": "string",
          "name": "licenseNumber",
          "type": "string"
        }
      ],
      "stateMutability": "view",
      "type": "function",
      "constant": true
    }
  ],
  "bytecode": "0x608060405234801561001057600080fd5b50338061003757604051631e4fbdf760e01b81526000600482015260240160405180910390fd5b6100408161004a565b506001805561009a565b600080546001600160a01b038381166001600160a01b0319831681178455604051919092169283917f8be0079c531659141344cd1fd0a4f28419497f9722a3daafe3b4186f6b6457e09190a35050565b611cb3806100a96000396000f3fe608060405234801561001057600080fd5b50600436106100b45760003560e01c80638da5cb5b116100715780638da5cb5b146101615780638f9c79ed1461017c578063996440c6146101af578063a5e5f940146101d2578063a9583c22146101e5578063f2fde38b1461020a57600080fd5b80630869cfbc146100b957806333a8587f146100e95780634b426178146100fe5780636d26dce8146101235780636f12fc3514610136578063715018a614610159575b600080fd5b6100cc6100c7366004611613565b61021d565b6040516100e098979695949392919061167b565b60405180910390f35b6100fc6100f73660046117bc565b61059b565b005b61011161010c366004611613565b6107a6565b6040516100e096959493929190611869565b6100fc6101313660046118eb565b610bfc565b610149610144366004611613565b610e3c565b6040516100e094939291906119e0565b6100fc611159565b6000546040516001600160a01b0390911681526020016100e0565b61019f61018a366004611613565b60046020526000908152604090205460ff1681565b60405190151581526020016100e0565b61019f6101bd366004611613565b60056020526000908152604090205460ff1681565b6100fc6101e0366004611a38565b61116d565b6101f86101f3366004611613565b6112b0565b6040516100e096959493929190611a86565b6100fc610218366004611613565b611512565b60026020526000908152604090208054819061023890611af7565b80601f016020809104026020016040519081016040528092919081815260200182805461026490611af7565b80156102b15780601f10610286576101008083540402835291602001916102b1565b820191906000526020600020905b81548152906001019060200180831161029457829003601f168201915b5050505050908060010180546102c690611af7565b80601f01602080910402602001604051908101604052809291908181526020018280546102f290611af7565b801561033f5780601f106103145761010080835404028352916020019161033f565b820191906000526020600020905b81548152906001019060200180831161032257829003601f168201915b50505050509080600201805461035490611af7565b80601f016020809104026020016040519081016040528092919081815260200182805461038090611af7565b80156103cd5780601f106103a2576101008083540402835291602001916103cd565b820191906000526020600020905b8154815290600101906020018083116103b057829003601f168201915b5050505050908060030180546103e290611af7565b80601f016020809104026020016040519081016040528092919081815260200182805461040e90611af7565b801561045b5780601f106104305761010080835404028352916020019161045b565b820191906000526020600020905b81548152906001019060200180831161043e57829003601f168201915b50505050509080600401805461047090611af7565b80601f016020809104026020016040519081016040528092919081815260200182805461049c90611af7565b80156104e95780601f106104be576101008083540402835291602001916104e9565b820191906000526020600020905b8154815290600101906020018083116104cc57829003601f168201915b5050505050908060050180546104fe90611af7565b80601f016020809104026020016040519081016040528092919081815260200182805461052a90611af7565b80156105775780601f1061054c57610100808354040283529160200191610577565b820191906000526020600020905b81548152906001019060200180831161055a57829003601f168201915b5050506006909301549192505060ff8116906001600160a01b036101009091041688565b6105a3611550565b3360009081526005602052604090205460ff16156106085760405162461bcd60e51b815260206004820152601960248201527f446f63746f7220616c726561647920726567697374657265640000000000000060448201526064015b60405180910390fd5b3360009081526004602052604090205460ff16156106735760405162461bcd60e51b815260206004820152602260248201527f41646472657373206973207265676973746572656420617320612070617469656044820152611b9d60f21b60648201526084016105ff565b6040805160c081018252858152602080820186905281830185905260608201849052600160808301523360a083018190526000908152600390915291909120815181906106c09082611b7c565b50602082015160018201906106d59082611b7c565b50604082015160028201906106ea9082611b7c565b50606082015160038201906106ff9082611b7c565b5060808201516004909101805460a0909301516001600160a01b031661010002610100600160a81b0319921515929092166001600160a81b0319909316929092171790553360008181526005602052604090819020805460ff19166001179055517fbc3a5b2aeb1bc52e3d56d3fd3423dd66cea5ecff8ae1f3bd0d75a0e608da7b859061078f9087908690611c3c565b60405180910390a26107a060018055565b50505050565b6001600160a01b0381166000908152600460205260409020546060908190819081908190819060ff166108145760405162461bcd60e51b815260206004820152601660248201527514185d1a595b9d081b9bdd081c9959da5cdd195c995960521b60448201526064016105ff565b6001600160a01b0387166000908152600260205260408082208151610100810190925280548290829061084690611af7565b80601f016020809104026020016040519081016040528092919081815260200182805461087290611af7565b80156108bf5780601f10610894576101008083540402835291602001916108bf565b820191906000526020600020905b8154815290600101906020018083116108a257829003601f168201915b505050505081526020016001820180546108d890611af7565b80601f016020809104026020016040519081016040528092919081815260200182805461090490611af7565b80156109515780601f1061092657610100808354040283529160200191610951565b820191906000526020600020905b81548152906001019060200180831161093457829003601f168201915b5050505050815260200160028201805461096a90611af7565b80601f016020809104026020016040519081016040528092919081815260200182805461099690611af7565b80156109e35780601f106109b8576101008083540402835291602001916109e3565b820191906000526020600020905b8154815290600101906020018083116109c657829003601f168201915b505050505081526020016003820180546109fc90611af7565b80601f0160208091040260200160405190810160405280929190818152602001828054610a2890611af7565b8015610a755780601f10610a4a57610100808354040283529160200191610a75565b820191906000526020600020905b815481529060010190602001808311610a5857829003601f168201915b50505050508152602001600482018054610a8e90611af7565b80601f0160208091040260200160405190810160405280929190818152602001828054610aba90611af7565b8015610b075780601f10610adc57610100808354040283529160200191610b07565b820191906000526020600020905b815481529060010190602001808311610aea57829003601f168201915b50505050508152602001600582018054610b2090611af7565b80601f0160208091040260200160405190810160405280929190818152602001828054610b4c90611af7565b8015610b995780601f10610b6e57610100808354040283529160200191610b99565b820191906000526020600020905b815481529060010190602001808311610b7c57829003601f168201915b50505091835250506006919091015460ff811615156020808401919091526101009091046001600160a01b0316604092830152825190830151918301516060840151608085015160a090950151929d939c50909a50985091965090945092505050565b610c04611550565b3360009081526004602052604090205460ff1615610c645760405162461bcd60e51b815260206004820152601a60248201527f50617469656e7420616c7265616479207265676973746572656400000000000060448201526064016105ff565b3360009081526005602052604090205460ff1615610cce5760405162461bcd60e51b815260206004820152602160248201527f416464726573732069732072656769737465726564206173206120646f63746f6044820152603960f91b60648201526084016105ff565b60408051610100810182528781526020808201889052818301879052606082018690526080820185905260a08201849052600160c08301523360e08301819052600090815260029091529190912081518190610d2a9082611b7c565b5060208201516001820190610d3f9082611b7c565b5060408201516002820190610d549082611b7c565b5060608201516003820190610d699082611b7c565b5060808201516004820190610d7e9082611b7c565b5060a08201516005820190610d939082611b7c565b5060c08201516006909101805460e0909301516001600160a01b031661010002610100600160a81b0319921515929092166001600160a81b0319909316929092171790553360008181526004602052604090819020805460ff19166001179055517f5aad8bc7ad9861b16c6d01a65f54118dfe585a51e408ac2e7b9499148d515c4190610e239089908990611c3c565b60405180910390a2610e3460018055565b505050505050565b6001600160a01b03811660009081526005602052604090205460609081908190819060ff16610ea55760405162461bcd60e51b8152602060048201526015602482015274111bd8dd1bdc881b9bdd081c9959da5cdd195c9959605a1b60448201526064016105ff565b6001600160a01b038516600090815260036020526040808220815160c08101909252805482908290610ed690611af7565b80601f0160208091040260200160405190810160405280929190818152602001828054610f0290611af7565b8015610f4f5780601f10610f2457610100808354040283529160200191610f4f565b820191906000526020600020905b815481529060010190602001808311610f3257829003601f168201915b50505050508152602001600182018054610f6890611af7565b80601f0160208091040260200160405190810160405280929190818152602001828054610f9490611af7565b8015610fe15780601f10610fb657610100808354040283529160200191610fe1565b820191906000526020600020905b815481529060010190602001808311610fc457829003601f168201915b50505050508152602001600282018054610ffa90611af7565b80601f016020809104026020016040519081016040528092919081815260200182805461102690611af7565b80156110735780601f1061104857610100808354040283529160200191611073565b820191906000526020600020905b81548152906001019060200180831161105657829003601f168201915b5050505050815260200160038201805461108c90611af7565b80601f01602080910402602001604051908101604052809291908181526020018280546110b890611af7565b80156111055780601f106110da57610100808354040283529160200191611105565b820191906000526020600020905b8154815290600101906020018083116110e857829003601f168201915b50505091835250506004919091015460ff811615156020808401919091526101009091046001600160a01b031660409283015282519083015191830151606090930151909991985091965090945092505050565b61116161157a565b61116b60006115a7565b565b3360009081526005602052604090205460ff166111e45760405162461bcd60e51b815260206004820152602f60248201527f4f6e6c79207265676973746572656420646f63746f72732063616e207065726660448201526e37b936903a3434b99030b1ba34b7b760891b60648201526084016105ff565b6001600160a01b03821660009081526004602052604090205460ff166112455760405162461bcd60e51b815260206004820152601660248201527514185d1a595b9d081b9bdd081c9959da5cdd195c995960521b60448201526064016105ff565b6001600160a01b038216600090815260026020526040902060050161126a8282611b7c565b50816001600160a01b03167f1e4a3aa86f1bd77fc9038887ebf88d1ce21f840aaf6b59e1c0ff164001c60bf7826040516112a49190611c6a565b60405180910390a25050565b6003602052600090815260409020805481906112cb90611af7565b80601f01602080910402602001604051908101604052809291908181526020018280546112f790611af7565b80156113445780601f1061131957610100808354040283529160200191611344565b820191906000526020600020905b81548152906001019060200180831161132757829003601f168201915b50505050509080600101805461135990611af7565b80601f016020809104026020016040519081016040528092919081815260200182805461138590611af7565b80156113d25780601f106113a7576101008083540402835291602001916113d2565b820191906000526020600020905b8154815290600101906020018083116113b557829003601f168201915b5050505050908060020180546113e790611af7565b80601f016020809104026020016040519081016040528092919081815260200182805461141390611af7565b80156114605780601f1061143557610100808354040283529160200191611460565b820191906000526020600020905b81548152906001019060200180831161144357829003601f168201915b50505050509080600301805461147590611af7565b80601f01602080910402602001604051908101604052809291908181526020018280546114a190611af7565b80156114ee5780601f106114c3576101008083540402835291602001916114ee565b820191906000526020600020905b8154815290600101906020018083116114d157829003601f168201915b5050506004909301549192505060ff8116906001600160a01b036101009091041686565b61151a61157a565b6001600160a01b03811661154457604051631e4fbdf760e01b8152600060048201526024016105ff565b61154d816115a7565b50565b60026001540361157357604051633ee5aeb560e01b815260040160405180910390fd5b6002600155565b6000546001600160a01b0316331461116b5760405163118cdaa760e01b81523360048201526024016105ff565b600080546001600160a01b038381166001600160a01b0319831681178455604051919092169283917f8be0079c531659141344cd1fd0a4f28419497f9722a3daafe3b4186f6b6457e09190a35050565b80356001600160a01b038116811461160e57600080fd5b919050565b60006020828403121561162557600080fd5b61162e826115f7565b9392505050565b6000815180845260005b8181101561165b5760208185018101518683018201520161163f565b506000602082860101526020601f19601f83011685010191505092915050565b600061010080835261168f8184018c611635565b905082810360208401526116a3818b611635565b905082810360408401526116b7818a611635565b905082810360608401526116cb8189611635565b905082810360808401526116df8188611635565b905082810360a08401526116f38187611635565b94151560c084015250506001600160a01b039190911660e0909101529695505050505050565b634e487b7160e01b600052604160045260246000fd5b600082601f83011261174057600080fd5b813567ffffffffffffffff8082111561175b5761175b611719565b604051601f8301601f19908116603f0116810190828211818310171561178357611783611719565b8160405283815286602085880101111561179c57600080fd5b836020870160208301376000602085830101528094505050505092915050565b600080600080608085870312156117d257600080fd5b843567ffffffffffffffff808211156117ea57600080fd5b6117f68883890161172f565b9550602087013591508082111561180c57600080fd5b6118188883890161172f565b9450604087013591508082111561182e57600080fd5b61183a8883890161172f565b9350606087013591508082111561185057600080fd5b5061185d8782880161172f565b91505092959194509250565b60c08152600061187c60c0830189611635565b828103602084015261188e8189611635565b905082810360408401526118a28188611635565b905082810360608401526118b68187611635565b905082810360808401526118ca8186611635565b905082810360a08401526118de8185611635565b9998505050505050505050565b60008060008060008060c0878903121561190457600080fd5b863567ffffffffffffffff8082111561191c57600080fd5b6119288a838b0161172f565b9750602089013591508082111561193e57600080fd5b61194a8a838b0161172f565b9650604089013591508082111561196057600080fd5b61196c8a838b0161172f565b9550606089013591508082111561198257600080fd5b61198e8a838b0161172f565b945060808901359150808211156119a457600080fd5b6119b08a838b0161172f565b935060a08901359150808211156119c657600080fd5b506119d389828a0161172f565b9150509295509295509295565b6080815260006119f36080830187611635565b8281036020840152611a058187611635565b90508281036040840152611a198186611635565b90508281036060840152611a2d8185611635565b979650505050505050565b60008060408385031215611a4b57600080fd5b611a54836115f7565b9150602083013567ffffffffffffffff811115611a7057600080fd5b611a7c8582860161172f565b9150509250929050565b60c081526000611a9960c0830189611635565b8281036020840152611aab8189611635565b90508281036040840152611abf8188611635565b90508281036060840152611ad38187611635565b941515608084015250506001600160a01b039190911660a090910152949350505050565b600181811c90821680611b0b57607f821691505b602082108103611b2b57634e487b7160e01b600052602260045260246000fd5b50919050565b601f821115611b7757600081815260208120601f850160051c81016020861015611b585750805b601f850160051c820191505b81811015610e3457828155600101611b64565b505050565b815167ffffffffffffffff811115611b9657611b96611719565b611baa81611ba48454611af7565b84611b31565b602080601f831160018114611bdf5760008415611bc75750858301515b600019600386901b1c1916600185901b178555610e34565b600085815260208120601f198616915b82811015611c0e57888601518255948401946001909101908401611bef565b5085821015611c2c5787850151600019600388901b60f8161c191681555b5050505050600190811b01905550565b604081526000611c4f6040830185611635565b8281036020840152611c618185611635565b95945050505050565b60208152600061162e602083018461163556fea26469706673582212209b4f4bebe8c2a4e452398d2d4c256ecc48dac27d816fbb801d6e3e3cd431d77c64736f6c63430008130033",
  "immutableReferences": {},
  "source": "// SPDX-License-Identifier: MIT\npragma solidity ^0.8.19;\n\nimport \"@openzeppelin/contracts/access/Ownable.sol\";\nimport \"@openzeppelin/contracts/utils/ReentrancyGuard.sol\";\n\ncontract MediConnect is Ownable, ReentrancyGuard {\n    constructor() Ownable(msg.sender) {}\n\n    struct Patient {\n        string name;\n        string email;\n        string phoneNumber;\n        string dateOfBirth;\n        string location;\n        string medicalHistory;\n        bool isRegistered;\n        address walletAddress;\n    }\n\n    struct Doctor {\n        string name;\n        string email;\n        string specialization;\n        string licenseNumber;\n        bool isRegistered;\n        address walletAddress;\n    }\n\n    mapping(address => Patient) public patients;\n    mapping(address => Doctor) public doctors;\n    mapping(address => bool) public isPatient;\n    mapping(address => bool) public isDoctor;\n\n    event PatientRegistered(address indexed patientAddress, string name, string email);\n    event DoctorRegistered(address indexed doctorAddress, string name, string specialization);\n    event MedicalRecordUpdated(address indexed patientAddress, string medicalHistory);\n\n    modifier onlyPatient() {\n        require(isPatient[msg.sender], \"Only registered patients can perform this action\");\n        _;\n    }\n\n    modifier onlyDoctor() {\n        require(isDoctor[msg.sender], \"Only registered doctors can perform this action\");\n        _;\n    }\n\n    function registerPatient(\n        string memory _name,\n        string memory _email,\n        string memory _phoneNumber,\n        string memory _dateOfBirth,\n        string memory _location,\n        string memory _medicalHistory\n    ) external nonReentrant {\n        require(!isPatient[msg.sender], \"Patient already registered\");\n        require(!isDoctor[msg.sender], \"Address is registered as a doctor\");\n\n        patients[msg.sender] = Patient({\n            name: _name,\n            email: _email,\n            phoneNumber: _phoneNumber,\n            dateOfBirth: _dateOfBirth,\n            location: _location,\n            medicalHistory: _medicalHistory,\n            isRegistered: true,\n            walletAddress: msg.sender\n        });\n\n        isPatient[msg.sender] = true;\n        emit PatientRegistered(msg.sender, _name, _email);\n    }\n\n    function registerDoctor(\n        string memory _name,\n        string memory _email,\n        string memory _specialization,\n        string memory _licenseNumber\n    ) external nonReentrant {\n        require(!isDoctor[msg.sender], \"Doctor already registered\");\n        require(!isPatient[msg.sender], \"Address is registered as a patient\");\n\n        doctors[msg.sender] = Doctor({\n            name: _name,\n            email: _email,\n            specialization: _specialization,\n            licenseNumber: _licenseNumber,\n            isRegistered: true,\n            walletAddress: msg.sender\n        });\n\n        isDoctor[msg.sender] = true;\n        emit DoctorRegistered(msg.sender, _name, _specialization);\n    }\n\n    function updateMedicalHistory(\n        address _patientAddress,\n        string memory _newMedicalHistory\n    ) external onlyDoctor {\n        require(isPatient[_patientAddress], \"Patient not registered\");\n        \n        patients[_patientAddress].medicalHistory = _newMedicalHistory;\n        emit MedicalRecordUpdated(_patientAddress, _newMedicalHistory);\n    }\n\n    function getPatientInfo(address _patientAddress) external view returns (\n        string memory name,\n        string memory email,\n        string memory phoneNumber,\n        string memory dateOfBirth,\n        string memory location,\n        string memory medicalHistory\n    ) {\n        require(isPatient[_patientAddress], \"Patient not registered\");\n        Patient memory patient = patients[_patientAddress];\n        return (\n            patient.name,\n            patient.email,\n            patient.phoneNumber,\n            patient.dateOfBirth,\n            patient.location,\n            patient.medicalHistory\n        );\n    }\n\n    function getDoctorInfo(address _doctorAddress) external view returns (\n        string memory name,\n        string memory email,\n        string memory specialization,\n        string memory licenseNumber\n    ) {\n        require(isDoctor[_doctorAddress], \"Doctor not registered\");\n        Doctor memory doctor = doctors[_doctorAddress];\n        return (\n            doctor.name,\n            doctor.email,\n            doctor.specialization,\n            doctor.licenseNumber\n        );\n    }\n} ",
  "sourcePath": "/Users/ms/Desktop/blockchain-project/contracts/MediConnect.sol",
  "compiler": {
    "name": "solc",
    "version": "0.8.19+commit.7dd6d404.Emscripten.clang"
  },
  "schemaVersion": "3.4.16",
  "updatedAt": "2025-06-09T06:54:14.492Z",
  "networkType": "ethereum",
  "devdoc": {
    "errors": {
      "OwnableInvalidOwner(address)": [
        {
          "details": "The owner is not a valid owner account. (eg. `address(0)`)"
        }
      ],
      "OwnableUnauthorizedAccount(address)": [
        {
          "details": "The caller account is not authorized to perform an operation."
        }
      ],
      "ReentrancyGuardReentrantCall()": [
        {
          "details": "Unauthorized reentrant call."
        }
      ]
    },
    "kind": "dev",
    "methods": {
      "owner()": {
        "details": "Returns the address of the current owner."
      },
      "renounceOwnership()": {
        "details": "Leaves the contract without owner. It will not be possible to call `onlyOwner` functions. Can only be called by the current owner. NOTE: Renouncing ownership will leave the contract without an owner, thereby disabling any functionality that is only available to the owner."
      },
      "transferOwnership(address)": {
        "details": "Transfers ownership of the contract to a new account (`newOwner`). Can only be called by the current owner."
      }
    },
    "version": 1
  },
  "userdoc": {
    "kind": "user",
    "methods": {},
    "version": 1
  }
}